{
  "contractName": "HelloWorld",
  "abi": [
    {
      "constant": true,
      "inputs": [],
      "name": "sayHallo",
      "outputs": [
        {
          "internalType": "string",
          "name": "",
          "type": "string"
        }
      ],
      "payable": false,
      "stateMutability": "pure",
      "type": "function"
    }
  ],
  "bytecode": "0x608060405234801561001057600080fd5b5061011d806100206000396000f3fe6080604052348015600f57600080fd5b506004361060285760003560e01c806324f2067714602d575b600080fd5b603360ab565b6040518080602001828103825283818151815260200191508051906020019080838360005b8381101560715780820151818401526020810190506058565b50505050905090810190601f168015609d5780820380516001836020036101000a031916815260200191505b509250505060405180910390f35b60606040518060400160405280601681526020017f54656c6c2043686f77204920736169642048616c6c6f0000000000000000000081525090509056fea265627a7a723158203e8a05c9ee71b78cccec34c9aa5c0a8676815c9d0f4873830955c95ca651e1b164736f6c63430005100032",
  "source": "pragma solidity ^0.5.16;\n\ncontract HelloWorld {\n  function sayHallo() public pure returns(string memory){\n    return(\"Tell Chow I said Hallo\");\n  }\n}\n",
  "sourcePath": "/truffle/contracts/HelloWorld.sol",
  "compiler": {
    "name": "solc",
    "version": "0.5.16+commit.9c3226ce.Emscripten.clang"
  },
  "schemaVersion": "3.4.2",
  "updatedAt": "2021-08-06T23:48:28.105Z",
  "networkType": "ethereum",
  "devdoc": {
    "methods": {}
  },
  "userdoc": {
    "methods": {}
  }
}