{
  "contractName": "HelloWorld",
  "abi": [
    {
      "inputs": [],
      "name": "sayHallo",
      "outputs": [
        {
          "internalType": "string",
          "name": "",
          "type": "string"
        }
      ],
      "stateMutability": "pure",
      "type": "function"
    }
  ],
  "bytecode": "0x608060405234801561001057600080fd5b5061017c806100206000396000f3fe608060405234801561001057600080fd5b506004361061002b5760003560e01c806324f2067714610030575b600080fd5b61003861004e565b60405161004591906100c4565b60405180910390f35b60606040518060400160405280601681526020017f54656c6c2043686f77204920736169642048616c6c6f00000000000000000000815250905090565b6000610096826100e6565b6100a081856100f1565b93506100b0818560208601610102565b6100b981610135565b840191505092915050565b600060208201905081810360008301526100de818461008b565b905092915050565b600081519050919050565b600082825260208201905092915050565b60005b83811015610120578082015181840152602081019050610105565b8381111561012f576000848401525b50505050565b6000601f19601f830116905091905056fea2646970667358221220de8180cb4b89b3ea3efb05272e2abc329f017447331593ebb560ea2fa3ac369864736f6c63430008060033",
  "immutableReferences": {},
  "source": "pragma solidity ^0.8.0;\n\ncontract HelloWorld {\n  function sayHallo() public pure returns(string memory){\n    return(\"Tell Chow I said Hallo\");\n  }\n}\n",
  "sourcePath": "/truffle/contracts/HelloWorld.sol",
  "compiler": {
    "name": "solc",
    "version": "0.8.6+commit.11564f7e.Emscripten.clang"
  },
  "schemaVersion": "3.4.2",
  "updatedAt": "2021-08-07T02:14:27.531Z",
  "devdoc": {
    "kind": "dev",
    "methods": {},
    "version": 1
  },
  "userdoc": {
    "kind": "user",
    "methods": {},
    "version": 1
  }
}